:020000040040BA
:1060000028FC4520F1DE4500EDDE4500A5B3440047
:106010009DB64400BDB64400DDB64400000000005B
:10602000000000000000000000000000B1BA4400C1
:10603000EDDE45000000000051BB4400B5BB44004C
:10604000EDDE4500EDDE4500EDDE4500857D4400DA
:10605000EDDE4500EDDE4500EDDE4500E19A440051
:10606000F19A44000000000011BB45001DBB450033
:1060700029BB4500319B4400419B4400519B440097
:1060800035BB450041BB4500EDDE4500EDDE45007A
:10609000FD9F4400EDDE4500EDDE45001DA34500FB
:1060A00071A34500EDDE4500EDDE4500EDDE450067
:1060B000EDDE4500D1B94500EDDE4500EDDE4500E1
:1060C000EDDE4500EDDE4500E5C34500EDDE4500B3
:1060D000EDDE4500EDDE4500EDDE4500EDDE450080
:1060E000DDB94500EDDE4500619B4400EDDE450075
:1060F000019B4400119B4400219B4400EDDE4500C0
:10610000EDDE4500EDDE45007DA34500EDDE4500FA
:10611000EDDE45000000000000000000000000006F
:10612000EDDE4500EDDE4500017F4400EDDE45007B
:10613000EDDE4500EDDE4500EDDE4500EDDE45001F
:10614000EDDE4500EDDE4500EDDE4500EDDE45000F
:10615000EDDE4500EDDE4500EDDE4500EDDE4500FF
:10616000EDDE4500EDDE4500970FF9A7177D4E994E
:10617000DB53A272E7C3E1E610B5054C237833B9CF
:10618000044B13B10448AFF300800123237010BD0A
:10619000A021402000000000ECE7480008B5034BB8
:1061A0001BB103490348AFF3008008BD00000000A5
:1061B000A4214020ECE7480008B549F0C5F949F0B2
:1061C000CDF9FCE708B549F0A9F849F0DFF8FCE79C
:1061D00008B548F0EFFFFCE708B548F02FFFFCE7F3
:1061E0004FF0FF32364B0025364E012480B51A6140
:1061F00084B002F0A9FF022703F06EFB48F0C0FA5A
:1062000052F0A2F800F0FCF92F4B186854F040FB54
:1062100052F09AF800F062FA03F04AFB2B4A2C493C
:106220002C4803F069FB48F0FBFE48F09DFC4CF065
:1062300035FF54F083F94FF4BA722946264875F0B9
:1062400007F9F26904214FF4B063284600950191E3
:106250002249CDE90222224A45F0F0F8326B0326AA
:106260004FF420631F492046CDE90242CDE9005793
:106270001D4A45F0E3F84FF410631C4A38461C49A8
:10628000CDE90244CDE9005645F0D8F849F6404240
:106290004FF420431749304601940095CDE902425E
:1062A000154A45F0CBF80C221449154877F01DF833
:1062B0000C221449144877F018F846F055FCFEE714
:1062C000008007401448402018394020419745007D
:1062D000EDEF4400EDEE4400E83F4020D96140007E
:1062E0000C304800D161400014304800183048009C
:1062F000C5614000B96140002030480028304800A6
:10630000E4404020303048002041402010B5054C8A
:10631000204657F07BFF2046034A0449BDE8104061
:1063200057F026BFBC2140209001402075E4450075
:106330000A2810B50C461CD0184B196821420CD104
:10634000174B1968214200D110BD164B186857F041
:106350005FF8154B63221A7010BD124B186857F086
:1063600057F8124B63221A700D4B19682142EBD07B
:10637000EBE7CA0609D4A307E6D502210C4857F07B
:1063800047F80C4B63221A7010BD1021084857F0D3
:106390003FF8094B63221A70EDE700BFBC2740208D
:1063A000B4274020B0274020A8474020A0474020E5
:1063B000000E0E40B047402098474020002304289C
:1063C000F0B50D4699B00B705CD0484F04463B6861
:1063D000984278D0464B1B6898427FD001286DD0F8
:1063E000444B06AE186806F0CDFA482242493046C2
:1063F00075F006F80A9B3A6843F0200394420A932A
:106400003E4B1B6803933E4B1B6804932FD0384BC5
:106410001B689C425ED0012C0CBF09230023ADF801
:106420001430D5F802300024364F5A1CADF816301F
:10643000C5F80220254604EB441C03AA0C23442182
:1064400004EB8C0C204657F80CC01CF4003F12D013
:1064500000953AF015FF4823324605212046009565
:106460003AF00EFF0134042CE5D119B0F0BD05233C
:10647000ADF81430D5E703A950F03CF8204650F0B1
:1064800021F8EFE71021204856F0C0FF194B06AE67
:10649000186806F077FA48221749304674F0B0FFC2
:1064A0000A9B164943F02003154A096812680A93AB
:1064B000022303910492ADF81430B2E7022112488E
:1064C00056F0A4FF8CE7114A114B1168186856F07A
:1064D0009DFF85E70823ADF81430A2E70D4A0C4B69
:1064E0001168186856F092FF7AE700BFC027402075
:1064F000B827402098724520A4354020C83140205C
:10650000A831402080394020000E0E40BC2740209A
:10651000B0274020B4274020F0B51D46344B85B04D
:106520000F461B6811469DF92860D3F88430DB07BD
:1065300048D5304B00F01F0E012403EB501C78238C
:1065400004FA0EF44FEA4C2CCCF80040CCF814407E
:10655000CCF8A040CCF86040CCF89440CCF8544043
:106560000846CCF82440CCF88040DCF87020039337
:1065700022EA04020291CCF87020DCF8742022EAAE
:106580000402CCF87420CCF8B44057F013F81A4A3F
:10659000284600923A46DDE9021355F075FA39466D
:1065A000284656F033FF31460322284655F0CEFAEE
:1065B00006F01F0101237609104A8B4042F826306D
:1065C00005B0F0BD0B4B012403EB501C00F01F0085
:1065D00058234FEA4C2C8440CCF80040CCF81440AF
:1065E000CCF8A040CCF86440CCF89040B6E700BFAF
:1065F00018394020070720003163400000E100E027
:10660000324B1B78042B00D97047314B10212022CC
:1066100010B519605961C3F8A0101966C3F890103D
:1066200059655962C3F88010186F2A4C20F0100089
:106630001867586F20F010005867C3F8B4101A603C
:106640005A61C3F8A0201A66C3F890205A655A62AE
:10665000C3F88020186F20F020001867586F20F0D2
:10666000200058672068C3F8B420D0F8880000F0F4
:106670003F000538052800D910BD1966C3F89010F1
:1066800059655962C3F880101C6F134824F0100438
:106690001C675C6F24F010045C6759601A66C3F8CD
:1066A00090205A655A62C3F88020196F21F02001AA
:1066B0001967596F21F0200159675A6043F0C8FAF1
:1066C0000548BDE8104043F02DBB00BFC427402063
:1066D00000100E4018394020C01340202DE9F04F23
:1066E000BB4B10252022BB4C1D6085B05D61C3F8FB
:1066F000A0501D66C3F890505D655D62C3F8805080
:10670000196F206821F01001DFF8D8A2DFF8D892C5
:106710001967596FDFF8D48221F01001AE4EAF4FE8
:106720005967C3F8B4501A605A61C3F8A0201A66BA
:10673000C3F890205A655A62C3F88020196F21F07F
:1067400020011967596F21F0200159670021C3F812
:10675000B42003F07FFE1221A14856F059FE4FF4F9
:1067600080633068CAF88030D8F80030D9F800105B
:10677000194356F04DFE97F900200121984B50091E
:1067800002F01F02203001FA02F24AF820202268AB
:10679000DFF85CA2D2F8840008221A6010F0010F22
:1067A0005A61C3F8A0201A66C3F890205A655A624D
:1067B000C3F88020D3F870C02CF0080CC3F870C068
:1067C000D3F874C02CF0080CC3F874C0C3F8B4201C
:1067D0001D605D61C3F8A0501D66C3F890505D65F3
:1067E0005D62C3F880501A6F22F010021A675A6F68
:1067F00022F010025A674FF40032C3F8B4501A6006
:106800005A61C3F8A0201A66C3F890205A655A62EC
:10681000C3F880201D6F25F400351D675D6F25F4DA
:1068200000355D67C3F8B4204FF480221A605A61C6
:10683000C3F8A0201A66C3F890205A655A62C3F8BC
:1068400080201D6F25F480251D675D6F25F4802550
:106850005D6718BF9025C3F8B42008BF88259AF853
:106860000030032B00F20682C0F30243052B00F038
:106870007E82C0F3C243052B00F0758200F00E004B
:10688000042800F02085062800F07982022800F014
:10689000ED83534B4FF400721A605A61C3F8A02085
:1068A0001A66C3F890205A655A62C3F88020196F9F
:1068B00021F400711967596F21F400715967C3F809
:1068C000B4204FF480621A605A61C3F8A0201A669F
:1068D000C3F890205A655A62C3F88020196F21F4DA
:1068E00080611967596F21F4806159670121C3F8EC
:1068F000B420374A11605161C2F8A0101166C2F885
:10690000901051655162C2F88010106F20F00100A4
:106910001067506F20F001005067C2F8B4100221D8
:1069200011605161C2F8A0101166C2F89010516553
:106930005162C2F88010106F20F002001067506F93
:1069400020F002005067C2F8B4109AF80020032A21
:1069500000F22E83224A4FF400735366C2F890303F
:1069600053655362C2F88030116F21F400711167D2
:10697000516F21F40071516753604FF480631366C7
:10698000C2F8903053655362C2F88030116F21F421
:1069900080611167516F21F4806151674FF40041AC
:1069A000536003F1804303F5612319605961C3F813
:1069B000A0101966C3F8901059655962C3F8801089
:1069C000186F20F400401867586F20F4004011E061
:1069D00000100E4018394020B0274020A827402042
:1069E000000E0E4000E100E0BC274020B42740200C
:1069F000C42740205867C3F8B4104FF480311960A1
:106A00005961C3F8A0101966C3F89010596559620E
:106A1000C3F88010186F20F480301867586F20F486
:106A200080305867C3F8B4109AF80030032B00F296
:106A300079828A4B022201205A61C3F8A0205A664B
:106A4000C3F890205A655A62C3F880201A6F22F06A
:106A500002021A675A6F22F002025A6741F0F8F9EF
:106A60002268DFF808E2D2F88410D2F8883001F406
:106A7000E06C03F03F00ACF5806BBBFA8BFB4FEA98
:106A80005B1B8EF800B013F0380B40F0A38113F0BD
:106A90003E0F40F03382714BDB6B980740F1178358
:106AA000BCF5806F40F09F81C1F34233062B00F0AC
:106AB00016836B499AF800000B68032843F00063C3
:106AC0000B6000F28D82674B4FF400211966C3F80A
:106AD000901059655962C3F88010186F0843186701
:106AE000586F20F40020586759604FF40041196630
:106AF000C3F8901059655962C3F88010186F0843A5
:106B00001867586F20F40040586759604FF40031FF
:106B10001966C3F8901059655962C3F88010186F50
:106B200008431867586F20F40030586759604FF4D5
:106B300080311966C3F8901059655962C3F8801006
:106B4000186F08431867586F20F4803058675960F1
:106B5000DFF81CE11021444B0120DEF814C14CEA9F
:106B6000010CCEF814C159631961C3F8A010D2F812
:106B7000841021F0C001C2F884109AF80030032B71
:106B800000F24181374B4FF400321A605A61C3F86A
:106B9000A0201A66C3F890205A655A62C3F8802074
:106BA000D3F870C02CF4003CC3F870C0D3F874C0A4
:106BB0002CF4003CC3F874C0C3F8B4204FF4002296
:106BC0001A605A61C3F8A0201A66C3F890205A656B
:106BD0005A62C3F88020D3F870C02CF4002CC3F89C
:106BE00070C0D3F874C02CF4002CC3F874C0C3F880
:106BF000B42068B901F4E063B3F5007F00F03C8392
:106C0000B3F5407F00F0C282B3F5807F00F0788258
:106C1000124B022201F030011A605A611029C3F8A8
:106C2000A0201A66C3F890205A655A62C3F88020E3
:106C3000186F20F002001867586F20F002005867A4
:106C4000C3F8B42000F03281202904D11A605A63BD
:106C50001A61C3F8A02005B0BDE8F08F000E0E4009
:106C60001C32402000140E4000100E40954740207A
:106C700000800840A74B19605961C3F8A01019663D
:106C8000C3F8901059655962C3F880101A6F22F04A
:106C900001021A675A6F22F001025A674FF48052BC
:106CA000C3F8B4101A605A61C3F8A0201A66C3F87A
:106CB00090205A655A62C3F88020196F21F48051E0
:106CC0001967596F21F480515967C3F8B4204FF404
:106CD00080421A605A61C3F8A0201A66C3F8902057
:106CE0005A655A62C3F88020196F21F480411967F0
:106CF000596F21F480415967C3F8B42003F500733C
:106D00004FF080521A605A61C3F8A0201A66C3F887
:106D100090205A655A62C3F88020196F21F0805183
:106D20001967596F21F080515967C3F8B4204FF0AB
:106D300080421A605A61C3F8A0201A66C3F89020F6
:106D40005A655A62C3F88020196F21F08041196793
:106D5000596F21F080415967C3F8B420C0F3024352
:106D6000052B7FF486AD9AF80030032B0CD800F089
:106D70000E0004283FF48DAD06287FF487AD9AF805
:106D80000030032B7FF685AD634B4FF080525A667F
:106D9000C3F890205A655A62C3F88020196F21F019
:106DA00080511967596F21F0805159675A604FF02F
:106DB00080421A66C3F890205A655A62C3F8802050
:106DC000196F21F080411967596F21F0804159678F
:106DD0005A605EE5A0F10803022B3FF65CAEBCF5FD
:106DE000806F3FF461AE4D4801F0C0030268402B54
:106DF00022F00062026000F09B829AF800300020CE
:106E0000032B7FF6BFAE434B4FF400021A605A616A
:106E1000C3F8A0201A66C3F890205A655A62C3F8D6
:106E20008020D3F870C02CF4000CC3F870C0D3F8E5
:106E300074C02CF4000CC3F874C0C3F8B4204FF035
:106E400080721A605A61C3F8A0201A66C3F89020B5
:106E50005A655A62C3F88020D3F870C02CF0807C49
:106E6000C3F870C0D3F874C02CF0807CC3F874C031
:106E7000C3F8B4204FF000721A605A61C3F8A02022
:106E80001A66C3F890205A655A62C3F88020D3F876
:106E900070C02CF0007CC3F870C0D3F874C02CF024
:106EA000007CC3F874C0C3F8B420A2E628071A60B7
:106EB0005A61C3F8A02000F10081E9061A66184B58
:106EC0004FF0020240F10081C3F89420144B0221DC
:106ED0000A2259651962C3F88410186F20F0020065
:106EE0001867586F20F0020058670120C3F8B410EB
:106EF0000092FFF711FB05B0BDE8F08FBCF5806F85
:106F00007FF471AF21F4E0618EF800B0C2F8841014
:106F100069E700BF00120E4000140E401C324020F2
:106F2000000E0E40012313605361C2F8A0301366B7
:106F3000C2F8903053655362C2F88030116F21F06F
:106F400001011167516F21F001015167C2F8B4309E
:106F50004FF08062884B1A605A61C3F8A0201A660D
:106F6000C3F890205A655A62C3F88020196F21F047
:106F700080611967596F21F080615967C3F8B420A7
:106F80004FF000621A605A61C3F8A0201A66C3F875
:106F900090205A655A62C3F88020196F21F0006171
:106FA0001967596F21F000615967C3F8B42040E5B3
:106FB0004FF400221A605A61C3F8A0201A66C3F881
:106FC00090205A655A62C3F88020196F21F400217D
:106FD0001967596F21F400215967C3F8B420B9E447
:106FE000654B4FF000711966C3F8901059655962EE
:106FF000C3F88010186F20F000701867586F0843AE
:10700000586759604FF000611966C3F890105965D0
:107010005962C3F88010186F20F000601867586F2D
:107020000843586759604FF080711966C3F8901093
:1070300059655962C3F88010186F20F08070186786
:10704000586F0843586759604FF080611966C3F85C
:10705000901059655962C3F88010186F20F0806055
:107060001867586F08435867596071E5434B102201
:1070700028071A605A61C3F8A02038D4E9061A66B6
:107080003E4B4FF0100238D5C3F894203B4B1021F3
:10709000042059651962C3F884101A6F22F0100297
:1070A0001A675A6F22F010025A670A22C3F8B41006
:1070B0000092FFF731FAFFF7ECBBE9065A662F4B57
:1070C0004FF002023FF500AFC3F89020FEE6012327
:1070D0008EF80030C1F34233062B7FF4EAACC1F3E3
:1070E0000243033B022B3FF6E4AC012045E5E906F1
:1070F0005A66224B4FF01002C6D4C3F89020C5E761
:107100001F4B4FF0010C1F4A2907186802EB501261
:1071100000F01F034FEA42220CFA03FCC2F800C041
:10712000C2F814C0C2F8A0C040F13581C2F864C0F2
:10713000EB0640F12D81C2F894C097F900703368D6
:10714000D9F80010C2F854C0C2F820C0C2F884C0F8
:10715000166F26EA0C061667566F26EA0C06566767
:10716000C2F8B4C0084A00971268FFF7D5F923683F
:10717000D3F884104CE500BF00120E40000E0E4004
:10718000C027402007072000AC274020864B012164
:10719000864A15F0080B186802EB501200F01F0326
:1071A0004FEA422201FA03F111605161C2F8A010C6
:1071B00000F0EC80516615F01003039300F0E380BB
:1071C000C2F8941051651162C2F88410136FDFF891
:1071D000E0A123EA0103DAF800C01367D2F874E0F3
:1071E000724B2EEA010E03EB5C130CF01F0CC2F87D
:1071F00074E0C2F8B41001225B0202FA0CF21A60C9
:107200005A61C3F8A020BBF1000F00F0BA805A66A3
:107210000399002900F0B280C3F894205A651A62DD
:10722000C3F88420D3F870C0D9F800102CEA020CFF
:10723000DFF88C91C3F870C0D3F874C02CEA020C4C
:10724000C3F874C0C3F8B42097F9003000933368D2
:10725000D9F80020FFF760F997F90030D8F800104E
:1072600000933368D9F80020DAF80000FFF754F9EA
:107270002368D3F88410CBE44D4B4FF0010C4B4AFC
:107280002907186802EB501200F01F034FEA422250
:107290000CFA03FCC2F800C0C2F814C0C2F8A0C0C7
:1072A0007FD5C2F864C0EB0678D5C2F894C0C2F8A6
:1072B00054C097F90070C2F820C03368D8F80010A5
:1072C000C2F884C044E79AF80030032B7FF6E1AAA5
:1072D000384B4FF4805238481A66C3F890205A65EC
:1072E0005A62C3F88020196F21F480511967596FD1
:1072F000114359675A604FF480421A66C3F89020D0
:107300005A655A62C3F88020196F21F480411967C9
:10731000596F114359675A60B0F8A230D0F8A410E1
:107320004FF47A7003FB00F040F012FFFFF7B1BAA0
:10733000224B4FF400425A66C3F890205A655A62B5
:10734000C3F88020186F10431867586F20F400406E
:1073500058675A604FF480321A66C3F890205A6515
:107360005A62C3F88020186F10431867586F20F4D2
:107370008030586700205A60FFF7FFBBC3F89020A9
:107380004CE71A6644E7C2F890101BE7116612E753
:10739000C2F890C0D1E6C2F860C0C9E6C2F890C099
:1073A00085E7C2F860C07EE7C027402007072000BD
:1073B000B827402000120E40D027402000140E4075
:1073C000AC274020704700BF0E4B1B68D3F88430B9
:1073D00003F03002202A00D070470B4A116849B1EF
:1073E000002113F0010F094B11604FF0020207D189
:1073F0005A63704713F0010F4FF00202034BF7D1AD
:107400001A63704718394020B8474020000E0E40DC
:10741000194908B50B78632B02D10420FEF7CEFF83
:10742000164B1B783BB916490B78632B1AD01549BC
:107430000B78632B11D0144B1B68D3F8843003F006
:107440003003102B00D008BD10490B78632BFAD104
:107450000120BDE80840FEF7B1BF0D4B1868FEF7EC
:10746000ADFFE8E70B4B1868FEF7A8FF05490B785E
:10747000632BE0D1F1E700BF9847402095474020BB
:10748000A0474020A847402018394020B04740205E
:10749000B8274020C027402010B5054C204656F0A4
:1074A000B5FE2046034A0449BDE8104056F060BED0
:1074B000C02140209001402075E44500114B124945
:1074C000124A10B41B780C6801331078E15C04EBAD
:1074D000030C88420FD0DCF804100D4AE05803C2B8
:1074E0000C4A01211170E058084ADCF8041003C26C
:1074F0005DF8044B704751789CF801209142EAD125
:10750000F1E700BF48224020E02240206C274020C5
:10751000C42140200423402038B5274C274D206843
:107520002968036801315B6A984720682968036805
:1075300009319B6A984760682968036810315B6A63
:10754000984760682968036818319B6A9847A06863
:10755000296803681F315B6A9847A0682968036837
:1075600027319B6A9847206803791BB10368144947
:10757000DB6A9847606803791BB103681149DB6ACD
:107580009847A06803791BB103680F49DB6A9847E5
:1075900023681B7913B963681B7943B10B480C4905
:1075A00002680B680132013302600B6038BDA368CA
:1075B0001B79002BFAD0F1E79C274020E0224020E5
:1075C000CC214020E82140200422402044224020B9
:1075D000402240201F490A6891ED016A52428B689F
:1075E000B8EEC66A07EE902ACA69D1ED085A5B4226
:1075F0005242F8EEE77AF8EEE55A07EE103A06EE58
:10760000902A4B6A67EE807AF8EEE66A5B4265EE96
:10761000805A17EE902AB8EEC77A66EE806A07EEB7
:10762000903A15EE903A26EE006AF8EEE77A02609C
:10763000036216EE903A27EE007AC36116EE103A16
:1076400027EE800A436017EE103A836010EE103A7E
:1076500043627047CC2140202A4BD968D3ED046A9D
:1076600049425A69F8EEE66A07EE901A5242996A60
:1076700066EE806A93ED0B6AB8EEE77A494207EE50
:10768000902AB8EEC66A16EE902A06EE901AF8EE28
:10769000E77AF8EEE66A02611A6B26EE006A67EE98
:1076A000807A524266EE806A27EE007A17EE901AD0
:1076B00007EE902A10B416EE104AF8EEE77A17EEAD
:1076C000102A4161C46216EE904AD3ED066A67EE55
:1076D000807A93ED0D7AF8EEE66A8462B8EEC77AA6
:1076E00017EE903A5DF8044B66EE806A036327EE6E
:1076F000000AC26016EE903A836110EE103A4363BE
:10770000704700BFCC2140202E4BD3ED007A596842
:107710009A68F8EEE77A4942524267EE807A06EEBE
:10772000901A07EE102ADA69D3ED085AF8EEE66AE5
:10773000524217EE901AB8EEC77A07EE902A5A6AAC
:10774000D3ED0F4A66EE806A524293ED0E5A1B6CDF
:10775000F8EEE44A06EE102AB8EEC55A5B42F8EE9F
:10776000E77AB8EEC66A016064EE804A25EE005AF8
:1077700026EE006A27EE007AF8EEE55A16EE102A99
:1077800006EE103A14EE903A67EE807AB8EEC66ACA
:107790004262836315EE103A26EE006AC36325EE5B
:1077A000800A16EE103A036416EE903A436017EE24
:1077B000103A836017EE903AC36110EE103A0362FC
:1077C000704700BFCC2140203B4BD3ED037A1969B1
:1077D0005A69F8EEE77A4942524267EE807A06EE3D
:1077E000901A07EE102A9A6A93ED0B5AF8EEE66AA1
:1077F000524217EE901AB8EEC77A07EE902A1A6B2B
:10780000D3ED122A66EE806A524293ED113AF8EEF9
:10781000E22AC16005EE902ADA6CB8EEC33AD3EDE5
:10782000063AF8EEE55A524262EE802A93ED0D4A8E
:1078300006EE102AD3ED144A65EE805AB8EEC66AF9
:1078400023EE003A15EE903AF8EEE33A26EE006A9F
:10785000036312EE903AB8EEC44A436413EE103A52
:1078600063EE803AF8EEE44A836416EE103A24EEB2
:10787000004AF8EEE77AC36413EE903A64EE804A69
:10788000836114EE103A27EE007A436314EE903AC7
:10789000B8EEC55A036516EE903A67EE807A03613A
:1078A00017EE103A25EE000A436117EE903A836214
:1078B00010EE103AC3627047CC21402030B54B4CDB
:1078C00083B04B4D20682968036802315B6A984792
:1078D0002068296803680A319B6A984760682968AC
:1078E000036812315B6A98476068296803681A3137
:1078F0009B6A9847A0682968036822315B6A9847A9
:10790000A068296803682A319B6A98472068037930
:107910001BB103683749DB6A9847606803791BB17C
:1079200003683549DB6A9847A06803791BB103688F
:107930003249DB6A984723681B791BB963681B7956
:10794000002B3DD02E482F4902680B6801320133CD
:1079500002600B6029686846323149F029F978B92C
:1079600029492A4BCA68BDF902400132BDF9040019
:10797000CA60BDF900201A6001225C6098601A7329
:10798000234B2D681B78234A02331478E85CE918EE
:10799000844203D154784878844216D0E8581E4A6D
:1079A00010608888908001201C4A10701648026977
:1079B00001320261E8584968164A03C203B030BD7B
:1079C000A3681B79002BC5D0BCE7947888788442E3
:1079D000E4D1D478C8788442E0D11479087984421B
:1079E000DCD150794A799042D8D1E3E79C274020F6
:1079F000E0224020CC214020E821402004224020E9
:107A0000442240204022402048294020202240207B
:107A10004822402074274020C421402004234020D5
:107A2000124A0021124B10B41278124C03EB820C54
:107A300010B2CCF804108CF808104FF4302143F841
:107A400020400CF104030CF1240043F8041B834292
:107A5000FBD1DCF8201002F1090341F08071CCF871
:107A60002010482BFDD85DF8044B70474822402079
:107A7000C0254020F7000B00114A1368012B30B4D9
:107A800018D0022B0CD10F480F4900F18005D0F817
:107A9000FC400D610D484861C86864F31700C86078
:107AA0000B490133096813608B4201D30023136033
:107AB00030BC704703480449C46F0861EAE700BF5F
:107AC00094274020A023402008234020E026402087
:107AD00094014020114B10B41B788B4215D0013B10
:107AE0000F4A52F8234024F0807442F823400D4B93
:107AF0005A6098601A6861F317021A60DA686FF3C7
:107B00001702DA605DF8044B70474B1E044A52F8C6
:107B1000234044F0807442F82340E8E748224020A4
:107B2000C025402008234020204AD2E9001038B563
:107B300092688C6B1E4B4D6BD0F834C0806BC3F8D1
:107B40009440546BC3F89050926B1A491A4DC3F885
:107B5000A8401A4CC3F8A000C3F89CC0C3F8AC20DE
:107B600009782868FFF7B6FF2378642B00D038BD6A
:107B70000931FFF7AFFF2378642BF8D1104A13685F
:107B8000012B08D00F490133096813608B42EED3F3
:107B90000023136038BD0C490C48C46F08610C48C1
:107BA0004861C86864F31700C860EBE79C27402071
:107BB000004440204822402000234020C427402089
:107BC000982740209401402008234020A0234020F3
:107BD000E0264020F8B5534C2378012B18D0022B17
:107BE00005D10121504852F0A7F900232370637892
:107BF0000BB1012323704D4A4D4B11781868FFF7E4
:107C000069FF0931FFF766FFBDE8F840FFF734BFB1
:107C10000021454852F090F96378012B5BD0454A2A
:107C2000454B464912681960D2F8C420444ED10031
:107C300001F0180141F4602041F45025110902F0CF
:107C400007025860C800012A00F0180040F46027BD
:107C500040F450209F60DE601D615861394835D086
:107C6000022A29D06AB3384A1546C0F8902001F09C
:107C70000301012951D002294BD0002945D0334AB4
:107C8000C0F89420C0F89C50C0F8A020596900208A
:107C90002F4A41F080712F4D607059610621536069
:107CA0009560136861F3170302211360D368217094
:107CB00060F31703D360F8BD274A1546C0F890203B
:107CC000D5E7264A1546C0F89020D0E7244A154645
:107CD000C0F89020CBE7184B184822491860A0F54F
:107CE00080305960174A9960A1F58031D8601648F4
:107CF0001961C2F89000596114481349C2F8940000
:107D0000C2F89C10C2F8A000C0E7174AC0F894203F
:107D1000B8E7164AC0F89420B4E7154AC0F8942092
:107D2000B0E700BF8C234020008000404822402064
:107D30000023402018394020602240201B000E0004
:107D40001B000D0000444020787D8B3ACDCC9C3B3D
:107D500008234020E0264020787D0B3AFDB30B3904
:107D6000FDB38B3918000E00CDCC1C3ACDCC1C3B9A
:107D7000CDCC9C3AF8B5584C2378012B12D0022B6D
:107D800065D0564B564A1978637810680BB10123B9
:107D90002370FFF79FFE0931FFF79CFEBDE8F84016
:107DA000FFF76ABE00214F4852F0C6F86378012BF6
:107DB0006CD04D4A4D4B4E4912681960D2F8C42020
:107DC0004C4E510001F0060141F4602041F4502571
:107DD000110902F0070258604800012A00F006006D
:107DE00040F4602740F450209F60DE601D615861C0
:107DF000414846D0022A3AD0002A3DD03F4A154693
:107E0000C0F8902001F00301012961D002295BD064
:107E1000002955D03A4AC0F89420C0F89C50C0F8C8
:107E2000A02059690020374A41F08071364D6070BA
:107E30005961062153609560136861F317030221AD
:107E40001360D368217060F31703D360F8BD01217C
:107E5000244852F071F8214B214A19781068FFF735
:107E600039FE002323706378002B92D08FE7274AD6
:107E70001546C0F89020C5E7254A1546C0F8902061
:107E8000C0E7244A1546C0F89020BBE7174B1848B6
:107E900021491860A0F580305960174A9960A1F512
:107EA0008031D86015481961C2F8900059611448B2
:107EB0001249C2F89400C2F89C10C2F8A000B0E7C2
:107EC000164AC0F89420A8E7154AC0F89420A4E701
:107ED000144AC0F89420A0E78C2340204822402078
:107EE00000234020008000401839402060224020BC
:107EF00001000E0001000D0000444020787D8B3A07
:107F0000CDCC9C3B08234020E0264020787D0B3AD6
:107F1000FDB30B39FDB38B3906000E00CDCC1C3AF6
:107F2000CDCC1C3BCDCC9C3A494A4A4B12681968CF
:107F3000D089C0BA091A908930B4C0BA196059689A
:107F4000454C0844118A25685860C9BA98680135BB
:107F50000144B2F8250025609960C0BAD969091AB0
:107F6000B2F82300D961C0BA196A0844B2F82710E0
:107F70001862C9BA586A014410895962C1BADC68EA
:107F8000D088641A5189C0BADC60C9BA1C6920441F
:107F9000324C186158690144B2F81F005961C0BAE7
:107FA000996A091AB2F81D009962C0BAD96A0844E0
:107FB000B2F82110D862C9BA186B0144508A19630B
:107FC000C0BA99690844B2F829109861C9BA586BC7
:107FD000014420685963451C214BB2F81700196809
:107FE000C0BA2560814216D0B2F815105C6849BA53
:107FF000494209B28C420ED0B2F819409D68E4BAE9
:10800000A54208D0174D9C6028606960AC60C3E948
:10801000000101212973D08DD968C0BA814214D0E2
:10802000918D1C6949BA494209B28C420DD0128E19
:108030005C69D2BA944208D00A4C5A6120616161ED
:10804000A261C3E903010123237730BCFFF736BAED
:10805000E0224020CC2140204422402040224020E9
:108060007C27402020224020494A4A4B1268196848
:108070009089C0BA091A508930B4C0BA19605968D9
:10808000454C0844D18925685860C9BA98680135BB
:108090000144B2F8230025609960C0BAD969091A71
:1080A000B2F82100D961C0BA196A0844B2F82510A3
:1080B0001862C9BA586A014490885962C1BADC682A
:1080C0005088641AD188C0BADC60C9BA1C692044DF
:1080D000324C186158690144B2F81B005961C0BAAA
:1080E000996A091AB2F819009962C0BAD96A0844A3
:1080F000B2F81D10D862C9BA186B0144108919630F
:10810000C0BA99690844B2F81F109861C9BA586B8F
:10811000014420685963451C214BB2F813001968CB
:10812000C0BA2560814216D0B2F811105C6849BA15
:10813000494209B28C420ED0B2F815409D68E4BAAB
:10814000A54208D0174D9C6028606960AC60C3E907
:10815000000101212973508DD968C0BA814214D021
:10816000118D1C6949BA494209B28C420DD0928DD9
:108170005C69D2BA944208D00A4C5A6120616161AC
:10818000A261C3E903010123237730BCFFF796B94D
:10819000E0224020CC2140204422402040224020A8
:1081A0007C27402020224020B54B802270B51A60E9
:1081B00088B307EE900A9FEDB36ADFEDB36AB7EEBE
:1081C000007AF8EE677AB14B0A22B14967EE867AF7
:1081D000B2FBF0F067EEA66AC3ED087A37EE875A75
:1081E000C3ED117AC3ED1A7A76EE875A086087EEEE
:1081F000856AC6EEA57A77EE466A83ED126AC3ED0C
:10820000136A37EE677AC3ED007AC3ED097A83ED1E
:10821000017A83ED0A7A9F4C2378642B00F0E48086
:10822000042B48D89C4A9D489D4CC2F89000C2F847
:108230009C009C48C2F89440C2F8A040C2F8980044
:10824000C2F8A400042B984900F00A81974C984B7F
:10825000984A0C601A609849984A9948994C9A4BE8
:1082600011602F2204601A700021984A084652F0CB
:108270004BF8964A0121002052F046F8934A022119
:10828000002052F041F8924A0021012052F03CF8BF
:1082900001218F4A084652F037F88D4A0221012009
:1082A00052F032F8042051F0D1FE0021744851F010
:1082B00043FE002070BD4C20864E43F067F800233B
:1082C00005466F491A464EF047F84C20356043F09A
:1082D0005DF8012305466A491A464EF03DF84C20E8
:1082E000756043F053F80223654905461A464EF07F
:1082F00033F83168684B486B7268C3F89000886B3C
:10830000516BC3F89400C3F89C10906B696BAA6B17
:10831000B560C3F8A000C3F8A810C3F8AC20237858
:10832000642B4BD160496C4C614B6C4A0C606448C7
:108330006B4C1A606B49614A634B04603B241160CB
:108340000020624A01211C7051F0DEFF5F4A0221C9
:10835000002051F0D9FF5D4A0321002051F0D4FFE5
:108360005A4A0421002051F0CFFF584A052100202D
:1083700051F0CAFF554A0621002051F0C5FF0121E6
:10838000534A084651F0C0FF514A0221012051F0E2
:10839000BBFF4F4A0321012051F0B6FF4C4A042194
:1083A000012051F0B1FF4A4A0521012051F0ACFFF4
:1083B000474A0621012051F0A7FF73E7042B7FF6FF
:1083C00041AF39480021484C394B444A04601A6097
:1083D0003B48434C394B434A04602D241A600846FD
:1083E000394B3A4A1C7042E74C203A4E42F0CEFFDD
:1083F0000123054622491A464DF0AEFF4C20356058
:1084000042F0C4FF022305461D491A464DF0A4FF61
:108410004C20756042F0BAFF0323194905461A46FD
:108420004DF09AFF31681C4B486B7268C3F890009E
:10843000886B516BC3F89400906BC3F89C10AA6BC7
:10844000696BC3F8A0001748B560C3F8A810C3F85B
:10845000AC20C3F89800C3F8A400C3F8B0005EE7EE
:10846000224C134B224A0C601A601349134A1448D9
:10847000144C154B1160332204601A70F4E600BFEF
:10848000008000406F12833A00007A43202340208E
:1084900094014020C427402000444020787D8B3A3E
:1084A000CDCC9C3BA69BC43BA401402069804000EE
:1084B000A0014020D57B4000597640009801402023
:1084C0009C014020D57540004822402040420F00CA
:1084D00000127A009C274020BD784000297B400094
:1084E00009774000C977400019754000297F400096
:1084F000757D40001E4A1368DB68012B24D9022BCE
:1085000009D0032B28D0052B22D90C2B28D80423E3
:1085100003700B7004E04FF0010C80F800C00B708A
:108520001368D3F8C43013F4706FC3F3032C04D072
:1085300080F800C01368D3F8C430C3F3033213F4D7
:10854000704F18BF0A707047002303700B70E7E785
:10855000032303700B70E3E7022303700B70DFE764
:10856000192B94BF0523062303700B70D8E700BFB7
:10857000183940201F4A1368DB68012B24D9022BCD
:1085800009D0032B2BD0052B25D90C2B2BD804235A
:1085900003700B7004E04FF0000C80F800C00B700B
:1085A0001368D3F8C43013F4706FC3F3032C04D0F2
:1085B00080F800C01368D3F8C430C3F3033213F457
:1085C000704F18BF0A7070474FF0070C012380F8F6
:1085D00000C00B70E4E7032303700B70E0E7022395
:1085E00003700B70DCE7192B94BF0523062303707F
:1085F0000B70D5E7183940202DE9F04FDFF8E092F5
:1086000087B0D9F80030002B40F39D800024A14FA3
:10861000DFF8D082DFF8D0B225469F4EDFF8CCA23B
:1086200002941FE0042B20D80DF117010DF1160064
:1086300000F0D281FFF75EFF4FF08053D8F80020A2
:1086400003FA05F5D2F884302B4200F0D68121469A
:10865000584649F09BFC0134D9F80030E4B29C4202
:10866000254673DA3B78642BDCD1D8F800204FF034
:108670008053D2F88410AB40194213D056F825002D
:1086800003681B68984730B156F8250003685B689B
:1086900098470028DFD1DAF8343043F48013CAF861
:1086A0003430D8E7D2F8C43056F825000393036875
:1086B0001B6898470028EED056F8250003685B68D1
:1086C00098470028E7D0D8F8003056F82500DA6837
:1086D0000399036892B201F007019B68984700284C
:1086E000D9D0039B56F82500C3F30111D8F8003008
:1086F000DA68036892B2DB6898470028CBD056F856
:10870000250003681B6998470028C4D056F8250047
:1087100003685B6998470028BDD056F825000368B8
:108720009B6998470028B6D056F825000368DB6996
:1087300098470028AFD056F8250003681B6A984771
:10874000002888D1A7E70023524F0293002051F060
:108750007DFC3B78642B00F09B82042B40F27B81F4
:108760004E4B4FF4007201214D481A8051F0E4FB4A
:108770003B78042B00F0798100F2BA80494C4FF429
:108780009072FF21204672F063FE4FF43021464A7A
:10879000022321604FF4602162601A460133182BD6
:1087A00044F82210F9D1414B19254FF45026236685
:1087B0002B4601352F2D44F82360F9D1D4F8B83079
:1087C0007C22FF2143F08073C4F8B830384C204637
:1087D00072F03EFE374B7C22FF212360673304F1A9
:1087E000800063608A3BA360D633E360324B236131
:1087F000673363618A3BA361D633E361E36943F086
:108800008073E3610823E36772F022FE2B4B2C4A4E
:10881000C4F880304FF46023C4F88430294BC4F886
:108820008830294BC4F88C60C4F89030273BC4F8DA
:1088300094200532C4F898307633C4F89C20C4F8EC
:10884000A030224A224BC4F8A420273AC4F8A8300A
:108850000533C4F8AC200E22C4F8B0306F33C4F82E
:10886000B430D4F8B43043F08073C4F8B430C4F8F2
:10887000FC20FFF7D5F817482946174A174B106018
:1088800000F148021A60FFF725F9029807B0BDE829
:10889000F08F00BFC42740209C2740208C2340201D
:1088A00000800040C0254020BB000E00BB000D0032
:1088B000A023402025000E0025000D0027000E00FB
:1088C0000C000E0027000D0031000E0031000D00DD
:1088D0000C000D002025402000234020E0224020F5
:1088E000A801402018394020082340201448402087
:1088F000642B40F07F81AB484FF490720021DFF889
:10890000EC82044672F0A4FD00234FF0010C99465E
:1089100058F8047B5A1C44F8239097F818E0BEF1ED
:10892000000F10D03D694FEA0C462B467544A2EB70
:10893000030A0AEB030013F8011B3143AB4244F86E
:108940002010F6D172447B7E012B40F2B781013BAF
:108950004FEA0C40134411460132934244F821007F
:10896000F9D10CF1010CBCF1040FD1D100228E48D9
:10897000591C4FF4C02544F823209A1C44F82100C8
:1089800003F10A0011460132904244F82150F9D116
:108990004FF080720B3344F82020844A1278154639
:1089A000482BFDD89342FBD113B2814904EB8206D8
:1089B00044F823104FF48021334606F1200043F899
:1089C000041F43F8041B8342FBD14FF0807309322C
:1089D0003362482AFDD84EE7FFF7CCFD4FF08053B5
:1089E000D8F8002003FA05F5D2F884302B421BD0CA
:1089F0002146584649F000F92DE69DF817302146EA
:108A0000D2F8C420584601939DF816300093C2F363
:108A1000011302F0070249F097F900283FF41BAE5A
:108A20004FF48013029316E69DF817302146D2F8D2
:108A3000C420584601939DF816300093C2F30113E9
:108A400002F0070248F064FF00283FF404AE4FF440
:108A500080130293FFE547F003FD00283FF480AE4A
:108A6000029B43F4001302937AE64E4C4FF490724B
:108A7000FF21204672F0ECFC4FF430224D4B4FF4B6
:108A80006021226063604FF450234B4AA160E26092
:108A900023610623494A62611A4601331C2B44F8BC
:108AA0002210F9D1464B1D254FF4502623672B4643
:108AB0000135332D44F82360F9D1D4F8C8307C2235
:108AC000FF21DFF8F0A043F08073DFF82491DFF896
:108AD000E880C4F8C8303B4C3B4F204672F0B8FCED
:108AE0003A4BC4F800A07C22C4F80490FF21C4F8DB
:108AF000088004F18000E7602361893363617C3B77
:108B0000A361C833E361324B2362893363627C3BE8
:108B1000A362C833E362E36A43F08073E3620C2329
:108B2000E36772F095FC2B4BC4F880A0C4F88490E6
:108B3000C4F88880C4F88C70C4F890304FF4602377
:108B4000254AC4F89430254BC4F89830244BC4F817
:108B50009C60C4F8A0301E33C4F8A4207432C4F85A
:108B6000A830303BC4F8AC20C4F8B0301D4A1E4BCE
:108B7000C4F8B4201E32C4F8B8307433C4F8BC2032
:108B80001222C4F8C0307F3BC4F8C430D4F8C430DB
:108B900043F08073C4F8C430C4F8FC20FEF740FFF3
:108BA00069E600BFC0254020C200060048224020E0
:108BB000840004007F000E007F000D00AD000E0059
:108BC000AD000D00A023402030000D0003000E007A
:108BD00003000D0005000E000C000E0005000D0046
:108BE00013000E0013000D000C000D009C27402008
:108BF00030000E0034484FF490720021DFF8D4802A
:108C0000044672F025FC00234FF001099C4658F8F9
:108C100004EB9EF81820002A54D009FA0CF6DEF86E
:108C20001070F643394617443604A3EB010A06F4E4
:108C300070260AEB010511F8010B30438F4244F80E
:108C40002500F6D11A449EF81930012B38D909FABB
:108C50000CF0013BC0431344000400F470201146A3
:108C600001329A4244F82100F9D10CF1010CBCF117
:108C7000030FCCD1591E54F8212042F0807244F8E1
:108C80002120124A1578482BFDD8AB42FBD1F2E5E2
:108C90000F4C002047F060FF206018B1029B43F4A6
:108CA00080030293002048F015FD606000283FF427
:108CB00057AD029B43F40013029351E5134650E66F
:108CC0001346D2E71A46BEE7C0254020482240207E
:108CD000482940209C27402010B500220446104916
:108CE000104851F0B9F998B90F4B20461B689847C6
:108CF0000E4A0F4B116899420BD00E4903F1480000
:108D0000136008600C4B20461B68BDE810401847F4
:108D100010BD01F14800074B10601960F2E700BF79
:108D20000823402000800040A40140200023402070
:108D300020254020E0224020A00140202DE9F047DE
:108D40001746B14A9846044613680D469DF82CA074
:108D50006BB107EE903AB7EE000AAC4B0021F8EE8B
:108D6000E77AAB481B68116080EE270A9847A94A4A
:108D700013686BB107EE903AB7EE000AA64B0021DC
:108D8000F8EEE77AA2481B68116080EE270A984740
:108D9000A24E54220021A24872F05AFB337B63B3E7
:108DA000DFF8909299F80030042B40F21381336879
:108DB0005B4207EE903A7368D6ED026A5B42B8EE0A
:108DC000E77AF8EEE66A327F07EE903A954BF8EED6
:108DD000E77A83ED007AC3ED026AC3ED017A92B1BE
:108DE0003269524207EE902A7269F8EEE77A5242EF
:108DF000C3ED037A07EE902AE1E0337FDFF8349287
:108E0000002B40F0CC80BAF1000F48D0804D0FCD40
:108E100020606160A260E36099F800C007CD206126
:108E2000BCF1040F6161A2610FCDE0612162626259
:108E3000A36207CDE0622163626308D90FCDA0630E
:108E4000E1632264636407CDA064E1642265337B3F
:108E50007BB100233373012388F80030724B1B6809
:108E6000002B00F02781A26900EE102A984787EDB9
:108E7000000A337F002B40F081806C4B1A7862B17E
:108E800099F800200021642A197000F00281042A58
:108E900040F2318101230A9A1370BDE8F0875C4BE0
:108EA0001A6822605A6862609A68A260DA69D968B2
:108EB000E2611A6A22625A6AE16062621A69226198
:108EC0005A6962619A6A93ED067AA262DA6AE2628C
:108ED00099F80020196B042A554A2163D2ED127AC1
:108EE000D2ED136A27EE877A00F2A680A26906EE19
:108EF000102AA6EE867A17EE102AA26193ED0D7A5B
:108F0000636B67EE877A07EE103AE6EE877A17EE24
:108F1000903A6363337BB3B100233373012388F842
:108F20000030414B1B68002B00F0B980A26900EEB5
:108F3000102A984787ED000A3A4B1A682A605A6847
:108F40009B686A60AB60337F002B96D00023337739
:108F5000012388F80130344B1B68002B00F0C080DF
:108F6000626B00EE102A984787ED010A2D4BD968F5
:108F70001A695B69E9602A616B617EE700233377D8
:108F8000012388F80130284B1B68002B00F09D80DE
:108F9000626B00EE102A984787ED010A6DE799F899
:108FA0000030042B1F4B3FF61BAF7269524207EE95
:108FB000902AF8EEE77AC3ED037AD6ED047AF8EE5C
:108FC000E77AC3ED047AD6ED067AF8EEE77AC3EDD8
:108FD000057A18E77368D6ED006A5B4296ED027A6F
:108FE000F8EEE66A327F07EE903AB8EEC77A0D4B9C
:108FF000F8EEE77AC3ED016A83ED027AC3ED007AF9
:10900000002AD2D1FFE600BF442240209C0140202C
:10901000002740204022402098014020202240206C
:10902000CC21402054274020348345200423402075
:1090300020234020C42740209A6BA263A26906EE39
:10904000102ADA6BA6EE867AE2631A6C22645A6CF6
:10905000626417EE101A9A6CA264DA6CA16193ED47
:109060000D7AE264626B27EE877A06EE102AA6EE8E
:10907000867A17EE102A626393ED147A236D67EEF9
:10908000877A07EE103AE6EE877A17EE903A236574
:1090900040E7DDE908121B4848F046FBFAE61A4BA8
:1090A0001868A36900EE103A03681B6B984787EDB8
:1090B000010A41E7144B1868A36900EE103A0368EF
:1090C0001B6B984787ED010AD3E60F4B626B58681C
:1090D00000EE102A03681B6B984787ED010ACCE667
:1090E000094B626B586800EE102A03681B6B9847A7
:1090F00087ED010A3AE7DDE90812024847F0ECF98A
:10910000C8E600BFC42140209C274020024B53F8F2
:10911000200003681B6B18479C27402080B483B055
:1091200000AF00237B6002E07B6801337B607B68DB
:10913000044A9342F8DD00BF00BF0C37BD465DF81E
:10914000047B70473F0D030090B583B000AF00F083
:109150009DFB002049F002FA00F070FA3860A94B3C
:109160001B6843F47003A74A1360BFF34F8FBFF32C
:109170006F8F386800F074FA00BF0021682000F09B
:10918000CFFA0021692000F0CBFA00216A2000F01C
:10919000C7FA0821682000F085FA0821692000F04C
:1091A00081FA08216A2000F07DFAFFF7B7FF6820F6
:1091B00000F0D2FA03465BB203F001035BB263F046
:1091C00007035CB2692000F0C7FA03465B005BB29C
:1091D00003F002035BB223435CB26A2000F0BCFAE6
:1091E00003469B005BB203F004035BB223435BB214
:1091F000DBB2DB43DAB2844B1A70834B1B78002B53
:1092000005D0814B1B780133DAB27F4B1A707F4B4C
:109210001B687F4A13607D4B5B687D4A53607B4BC4
:109220009B687B4A9360794BDB68794AD360774BC4
:109230001B69774A1361754B5B69754A5361734BC0
:109240009B69734A9361714BDB69714AD361002357
:109250007B6007E06D4A7B68002142F823107B6841
:1092600001337B607B68072BF4DD674B1B78642B35
:1092700019D0642B26DC032B02DC002B04DA21E05E
:10928000043B012B1ED80EE0624B1A68624B13445C
:10929000012B06D95E4B1B6843F000635C4A1360E8
:1092A00000E000BF15E05B4B1A685C4B1344012BD8
:1092B00006D9574B1B6843F00063554A136000E022
:1092C00000BF06E0524B1B6843F00063504A136036
:1092D00000BF682000F0CEF90021682000F020FADD
:1092E0000021682000F0DEF90021682000F046FA35
:1092F000692000F0BFF90021692000F011FA002177
:10930000692000F0CFF90021692000F037FA6A20C7
:1093100000F0B0F900216A2000F002FA00216A2072
:1093200000F0C0F900216A2000F028FA002054F073
:10933000E3F800F06DFA00F041F900F053F93EF067
:109340002FFE374B374A5A60354B374A5A6000F088
:1093500047FA3EF029FD2C4B1B78042B2CD9052015
:1093600000F088F90021052000F0DAF9102105202D
:1093700000F098F90021052000F000FA182000F014
:1093800079F90021182000F0CBF91021182000F005
:1093900089F90021182000F0F1F9422000F06AF963
:1093A0000021422000F0BCF91021422000F07AF99F
:1093B0000021422000F0E2F902203EF049FD0120A8
:1093C00049F0CCF864203EF043FD0F4B1B78032B93
:1093D0003CD8164B71221A60154B4FF400321A60BC
:1093E000144B73221A60144B4FF400221A60134B73
:1093F000134A1A60134B10221A60134B10221A7072
:109400003BE000BF88ED00E0C427402090180E40EC
:10941000F447402040090E4000F4ED5E00F4FD5E8C
:10942000000C0E400C08005A0C07005AC0274020C0
:10943000BC274020B8274020B4274020B027402038
:1094400000140E40AC274020A8274020514B582242
:109450001A60514B4FF080721A60504B59221A60BB
:109460004F4B4FF000721A604E4B4F4A1A604F4BF1
:109470000C221A604E4B0C221A700A21722000F046
:1094800011F9722000F002F90221632000F00AF9BC
:10949000632000F0FBF800210F2000F041F90A21C1
:1094A000792000F0FFF8792000F0F0F802217A200E
:1094B00000F0F8F87A2000F0E9F80021102000F020
:1094C0002FF90121742000F0EDF8742000F0DEF88F
:1094D0000121752000F0E6F8752000F0D7F8012191
:1094E000762000F0DFF8762000F0D0F8032122206B
:1094F00000F0D8F8222000F0C9F800211F2000F069
:10950000D1F81F2000F0C2F802216C2000F0CAF848
:109510006C2000F0BBF8274B1B78042B06D80121E8
:109520007B2000F0BFF87B2000F0B0F80021242061
:1095300000F0B8F8242000F0A9F80021252000F060
:10954000B1F8252000F0A2F81B4BD3F814311A4AC9
:1095500043F03003C2F81431164B1B78042B15D995
:109560000021242000F09EF8242000F08FF8002134
:10957000252000F097F8252000F088F80E4BD3F84E
:1095800014310D4A43F03003C2F8143100BF0C37D8
:10959000BD4690BDC0274020BC274020B8274020B2
:1095A000B4274020B027402000120E40AC274020B6
:1095B000A8274020C427402000800840BFF34F8FD9
:1095C000BFF36F8F064B0022C3F850225A6942F452
:1095D00000325A61BFF34F8FBFF36F8F704700BFE8
:1095E00000ED00E0144830B5D0F8804004F00705E5
:1095F000C4F34E3EC4F3C9040435B4FA84FC0CF041
:109600001F0CBFF34F8F0EFA05F1234603FA0CF23D
:10961000013B0A43C0F860225A1CF7D1BEF1010E8B
:10962000F1D2BFF34F8F436943F480334361BFF3FB
:109630004F8FBFF36F8F30BD00ED00E082B0EFF3CE
:109640001083B3FA83F35B09019372B6BFF35F8FA4
:10965000024B00221A70019802B07047CD1A4020C8
:1096600028B1034B01221A70BFF35F8F62B67047B7
:10967000CD1A4020044B012200F01F0103EB5013D0
:109680008A405B021A60704707072000044B0122E2
:1096900000F01F0103EB50138A405B025A607047D1
:1096A000070720001D4B012200F01F0C03EB501098
:1096B00002FA0CF30A074FEA40201ED5CA06436699
:1096C0001ED58A06C0F894301ED511F0C00F036570
:1096D0001ED00A0603621ED5C0F88430026F11F056
:1096E000010F14BF1A439A4389070267426F4CBFA8
:1096F000134322EA030343677047CA060366E0D4B4
:109700008A06C0F89030E0D411F0C00F4365E0D174
:109710000A064362E0D4C0F88030DFE70707200084
:109720000C4B012903EB501300F01F004FEA4323B9
:109730000BD021B101218140C3F8A0107047012155
:1097400081405961C3F8A010704781401961C3F886
:10975000A010704707072000074B012203EB5013AE
:1097600000F01F005B0202FA00F0DB6B184214BF2E
:1097700010460020704700BF07072000174B00F07D
:109780001F0C0122013903EB501002FA0CF24002C7
:1097900003291FD8DFE801F017100902C0F8C42020
:1097A000C0F8D420C0F8B0207047C0F8C420C0F87A
:1097B000D020C0F8B0207047C0F8C020C0F8D42036
:1097C000C0F8B0207047C0F8C020C0F8D020C0F862
:1097D000B0207047C0F8B420704700BF07072000D2
:1097E000BFF34F8FBFF36F8F084BD3F8902222F057
:1097F0000102C3F89022D3F8942222F00102C3F8A8
:109800009422BFF34F8FBFF36F8F704700ED00E0DE
:10981000194B10B51B6B03F00303022B26D017481E
:1098200054F02AFC3421012053F078FE53F0A0FEBE
:109830000028FBD0124A134B1278134C022A88BF1F
:109840001C4653F09DFE0C4B9C6253F0A1FE002879
:10985000FBD0022053F0E2FD002053F021FE54F033
:109860009DFB0648BDE8104054F006BC002053F0B4
:10987000EBFD53F085FED2E700060E4000A3E11198
:10988000C4274020013F1820013F0E2008B50A20C0
:1098900053F090FE0B2053F08DFE0C2053F08AFE07
:1098A000102053F087FE1120BDE8084053F082BE1F
:1098B000084B0420012110221861C3F8A00019618F
:1098C000C3F8A0101A61C3F8A020586359635A6303
:1098D000704700BF00140E4010B5064C206820B140
:1098E00003685B68984700232360BDE8104000F0E0
:1098F0003FBC00BF987245202DE9F047DFF8D490B7
:109900000646304B8846D9F800401746D4E9120184
:1099100058619961D4E91401D8611962D4E916013A
:10992000294C5862996236F00BFB00F053FF18B1D6
:10993000636B43F40033636300F044FF18B1636B5F
:1099400043F480336363DFF890A0DAF8005035B356
:10995000D9F8003028462A68D9685269E161196946
:109960009047236B53B1DAF8000003681B699847EE
:10997000E269236B934228BF1346E361DAF80030B3
:1099800030465E60C3F8088036F0FAFA17B1DAF8AC
:109990000030DF600D4B00221A60BDE8F08743F213
:1099A000687041F0F3FC054602F076FC084B05F5C3
:1099B0009B602B601AF0C6F90023CAF800502B7484
:1099C000C6E700BFBC47402014484020143940205F
:1099D000205D4800183940209872452030B50C4968
:1099E00083B00C483AF06CF80B4B0C4918680C4AE1
:1099F00004680C4D074BCDE900250A6BA468C969C2
:109A0000A04718B1084B022201201A6003B030BDF4
:109A10004432402020324020987245201448402093
:109A200090374020EC2840201439402070B5524D2A
:109A300086B02B68BBB1012B30D0504C00287DD0B4
:109A40004F49206803F0EEFA4E4A4F4E1368013337
:109A50001360316A8B4223D30023206813600368AC
:109A60009B6E98471CE0002864D148490A684B68FF
:109A700043EC172BB5EE407BF1EE10FA0ED04449C3
:109A80000A684B6843EC172BB5EE407BF1EE10FAF9
:109A90005ED1404B1B685B6CDA0459D4374C3A4EAC
:109AA0003D4B2068D3F8AC310BB101230374326B0A
:109AB000D0F820319A420AD803680021314ADB6984
:109AC00011609847206803F043FB03232B60334B5E
:109AD000334D1A686B783260C3B92B780BB906B076
:109AE00070BD002202AE1423206804923421CDE917
:109AF00000262A70264A03F059FA049B002BEED068
:109B0000032231463046984706B070BD002202AEAF
:109B10001823352104922068CDE900266A70214A75
:109B200003F044FA049B002BD7D003223146304681
:109B30009847D2E712490A684B6899E713492068A9
:109B400002F0C6FC2068104E03689B6E9847A7E79A
:109B500014490A684B6843EC172BB5EE407BF1EED5
:109B600010FA04D10B4B1B685B6C9B0496D5012348
:109B7000024C054E2B6093E7143940209872452023
:109B800044324020103940201448402028394020D9
:109B900090374020183940203C424020A8314020D6
:109BA00074474020EC284020F8B5774D286804F031
:109BB00043FA764A1368012B00F09880032B40F09B
:109BC00092800223724C734913600122E3780A6089
:109BD00033B1002328687049E37003685B6A9847D3
:109BE000A37833B1002328686C49A37003681B6A0B
:109BF0009847286803689B699847237B33B1002204
:109C00002868674922730368DB6A9847637B3BB126
:109C1000002328680122634963730368DB6A98475D
:109C2000A37B63B15E49002228680E6D5C31A2738C
:109C300051F8087C036847EC106B1B6B9847E37B7B
:109C40006BB15849002628680A6D5C31E67351F8FB
:109C5000083C43EC102B036801221B6B9847237CC4
:109C60005BB14F49002628684B6D0A6D26744E493A
:109C700043EC102B03685B6B9847637C5BB14849EE
:109C8000002628684B6D0A6D6674484943EC102B1A
:109C900003689B6B9847A37C5BB141490026286809
:109CA0004B6D0A6DA674424943EC102B03681B6C84
:109CB0009847404C2368F3B93F4B1A6892F84030FC
:109CC000022B06D128684FF0FF310368D3F8B43077
:109CD000984728680368DB6E98470446002842D1FD
:109CE00001242046F8BD00242046F8BD0024FFF7DB
:109CF00075FE2046F8BD304E3268516C11F4805725
:109D0000DCD1652B34D017D8581E0128D6D821F4C1
:109D1000E06141EA0323536444F06AF8286821684B
:109D20000368D3F8B03098476FF037033268677034
:109D30002370A770E770C1E7C82BBFD16368DFED60
:109D40001F7A07EE103AB4EEE77AF1EE10FAB5DBBF
:109D50001B4B1B68002BB1D06FF036036770A770E8
:109D6000E7702370AAE7286804F05AFB2046F8BD84
:109D700028680368D3F8BC3098473268277067704A
:109D8000A770E7709AE700BF987245201439402009
:109D900074474020B8474020EC28402090374020AE
:109DA000502A402024304020C42A402098304020AF
:109DB0004849402084374020183940200000C842DC
:109DC000B836402030B5AF4C87B0237A002B40F036
:109DD0000181637AF3B1AC484FF0000CAB49436D9D
:109DE000026D4B65AA4B0A655C22184684F809C0CF
:109DF00071F006FBA74A03461268D2F8C020D507C7
:109E000003D5816841F480118160100700F19480CE
:109E100001236373A37A9BB19B4A00209E4BD16DB3
:109E2000D2F864C0D965D16EA072D9660121906E56
:109E3000A173116EC3F864C01966116F9866196733
:109E4000E37A9BB1914A0020914BD16DD2F864C066
:109E5000D965D16EE072D9660121906EE173116E01
:109E6000C3F864C01966116F986619678B4A40F28F
:109E7000BA718B4B12681B689B1A03F2DD338B425D
:109E800056D8884B19688A4263D1237EF3B1864B3A
:109E90000021864A03F12000217619681033103220
:109EA00042F8101C834253F80C1C42F80C1C53F867
:109EB000081C42F8081C53F8041C42F8041CECD19E
:109EC000186859680123106051602374637E002B69
:109ED0006BD1A37EF3B1764B0021764A03F12000CB
:109EE000A17619681033103242F8101C834253F8DF
:109EF0000C1C42F80C1C53F8081C42F8081C53F8C0
:109F0000041C42F8041CECD1186859680123106045
:109F100051606374E37E002B40F0F580237D002BBD
:109F200040F0D4802379002B40F08D8007B030BD05
:109F3000614B00221A70A8E75E499A68496A42F4A8
:109F40008000090198607FF563AF42F004629A6077
:109F50005EE750491A600B68D3F8C0301D0700F166
:109F6000E880564B9B6813F0806300F0F080012579
:109F7000514B5C22514948481D7071F041FA2573DC
:109F800000224F4902AD5C23086836210492CDE9D6
:109F900000254A4A03F00AF8049B002B3FF475AFF2
:109FA00003222946284698476FE70022444902AD1C
:109FB000B0230868162162760492CDE90025414A53
:109FC00002F0F4FF049B002B83D00322294628468D
:109FD00098477EE700223A4902AD5C2308680621D3
:109FE00022720492CDE90025274A02F0DFFF049B8C
:109FF0001BB103222946284698472F4B1B78002B7C
:10A000007FF4E7AE244B5C221F49184671F0F8F943
:10A01000204A03461268D2F8C020D50703D58168CC
:10A0200041F48011816010070AD522499A68496A73
:10A0300042F480000901986002D542F004629A60FF
:10A0400001232373C5E6204A00211D4802AD536851
:10A050000068C3EBC303009121710833049101959B
:10A060002D21B3F5317F28BF4FF4317302F09EFFED
:10A07000049B002B3FF45AAF0322294628469847F9
:10A0800007B030BD744740205C484020D048402095
:10A090002430402018394020502A4020E43F4020FE
:10A0A000A8314020C8274020743E4020C42A4020C8
:10A0B0004C3F402098304020CC274020683D402035
:10A0C00098724520C43D4020842C4020214A002124
:10A0D000214802AD53680068013300912175DB000F
:10A0E000049101950F21B3F5CC7F28BF4FF4CC73B9
:10A0F00002F05CFF049B002B3FF414AF03222946BF
:10A10000284698470EE70022134902ADB02308689D
:10A110005C21E2760492CDE90025104A02F046FF68
:10A12000049B002B3FF4FAAE0322294628469847A9
:10A13000F4E60B4A0B4B9168586A41F48003000126
:10A1400093607FF510AF41F0046393600BE7064A1C
:10A15000137015E7EC2A4020987245209C3E402061
:10A16000683D402098304020CC27402035F088BC06
:10A170002DE9F041542200216548242571F068F949
:10A180000021542263480C4671F062F92A46624865
:10A190002146382671F05CF9604B61482A461C6004
:10A1A00021465C61602704615C254FF0DC08C3E94F
:10A1B0000144C3E90344C0E90044C0E902445948EA
:10A1C00071F046F921463246574871F041F93A4656
:10A1D0002146564871F03CF92146B022544871F0AE
:10A1E00037F932462146534871F032F921464FF48F
:10A1F0000572514871F02CF9504B514A21469C6030
:10A200005048C3E90044C2E90044282271F020F913
:10A210004D4B2A4621464D48C3E900444C4B1C6037
:10A220005C604C4BC3E90044C3E90244C3E9044405
:10A230009C6171F00DF92A462146474871F008F9F2
:10A240002A462146454871F003F92A4621464448EA
:10A2500071F0FEF842462146424871F0F9F8424654
:10A260002146414871F0F4F821464FF4CC723F4842
:10A2700071F0EEF821464FF431723D4871F0E8F884
:10A280002146A8223B4871F0E3F821464FF4BA7208
:10A29000394871F0DDF8214640F23912374871F043
:10A2A000D7F8374B4FF07E513246364801251960BA
:10A2B000214671F0CDF8344B21464FF4A272184676
:10A2C00071F0C6F8214685604C22304871F0C0F824
:10A2D0003A4621462E4871F0BBF8214650222D48BF
:10A2E00071F0B6F82C492D4B2C220C7021462C48CD
:10A2F0001C7071F0ADF82B4A20462B4B14601C608B
:10A300002A492B4A2B4B0C6014701D70BDE8F0815C
:10A31000F82940204432402020324020EC284020C0
:10A32000903740204849402034374020F4344020C2
:10A33000DC334020144840208039402084374020BE
:10A34000EC47402028394020E42840205C48402049
:10A350007C37402074474020D0484020502A40207D
:10A3600024304020482F4020C0304020EC2A40209C
:10A37000842C4020D0274020E83F4020D437402084
:10A380003C2940200429402098324020D0314020F0
:10A3900048294020A82940204C2A40204D2A40200E
:10A3A000BC474020E8474020B83640201C324020BF
:10A3B000944740204E2A4020A8B100231C210122AE
:10A3C00010B504464360836003614361836101709B
:10A3D00043708370C370027343738373C37337F026
:10A3E00083FA606010BD704768B34FF4F2720021C9
:10A3F00010B5044671F02CF80023134A4FF07E513B
:10A400004FF0804CA370E37008466372A372E3724E
:10A410000E4BA26163610D4B2262236101230C4A42
:10A4200063700C23E2606FF01B0221634FF4F27142
:10A43000206420652046C4F81CC02270237237F0C7
:10A4400053FA606010BD7047CDCCCC3D0AD7A33B1A
:10A450000AD7233CD0F88430B34AC3F3C24C70B55A
:10A46000BCF1040F1678C3F30245C3F3815494BFC3
:10A4700000220122032EC3F3416E02D9002900F00D
:10A48000AC801146A94ED0F8C020324240F0B480D2
:10A4900003F00C06042E03D123F00E03C0F8843021
:10A4A000042D00F2A48019B123F46013C0F88430A5
:10A4B000032C03D123F44003C0F88430BEF1030F12
:10A4C00003D123F0C063C0F88430C3F342310329C1
:10A4D00000F0F580042940F0968003F4E061B1F5C6
:10A4E000807F00F0988013F4E02FC3F3024110D076
:10A4F00001F1FF3CBCF1010F00F2ED8001298C4914
:10A5000001EA03010CBF41F4005341F48043C0F859
:10A510008430C3F3C2414FEAD34C0139012905D835
:10A5200023F0C0634FEAD34CC0F884308CEA134C5C
:10A53000190C1CF0070F00F0A88001F0070112F0C1
:10A5400003040ED0032C00F0D980002940F0818054
:10A5500022F0030213F4400FC3F38154C0F8C0206B
:10A560007CD112F00C042BD00C2C00F0CC800029F4
:10A5700056D013F4601F53D013F4400FC3F381542B
:10A5800057D155071CD522F00C02C0F8C020012C71
:10A5900000F0C28002F0040595B14D1E012D04D9D2
:10A5A000C3F3C245013D012D03D822F00C02C0F8CF
:10A5B000C020012C00F0B28022F00C02C0F8C020B4
:10A5C00002F0090CBCF1090F00F09380052957D067
:10A5D000C3F3C242052A53D070BDBCF1050FD0F8B9
:10A5E000C02094BF00210121052D7FF65CAF23F42C
:10A5F000E023C0F8843056E722F4882222F48862EF
:10A60000C0F8C02044E705294CD103F4E061B1F55E
:10A61000007F7FF468AF23F4E063C0F8843062E722
:10A6200022F00C0213F4400FC3F38154C0F8C02091
:10A63000C6D013F0C06F4FEA5365A8D15607A2D415
:10A64000012CBDD105F00305012DA3D11607B3D40C
:10A65000A0E713F4400FC3F3815459D0012C01D16A
:10A66000D40708D402F00204002C3FF47AAF4C1E49
:10A67000012C3FF676AF22F00302C0F8C02070E74D
:10A6800023F00E03C0F8843070BD11F007013FF4D1
:10A6900056AF23F47C1343F48813C3F30041C0F88E
:10A6A00084304CE706297FF41EAF03F030011029F7
:10A6B0007FF419AF23F03003C0F8843013E703F0C0
:10A6C0000E0102297FF40FAF23F00E0343F00403C1
:10A6D000C0F8843007E7C3F3815102297FF419AF32
:10A6E00013F4604F3FF415AF23F46043C0F8843097
:10A6F0000FE722F00102C0F8C02067E722F0030252
:10A70000C0F8C02021E722F00C02C0F8C0202EE7DC
:10A7100095077FF526AFAEE75D0E93E7C3F341647F
:10A72000012C7FF449AF4BE7C4274020404404008C
:10A73000FF1F3FFFF8B14FF43272002110B50446FD
:10A7400070F086FE002302226FF037014FF0640C98
:10A750002046A37021704FF432716270E370227250
:10A760006372A372E37284F8C2C284F8C33237F012
:10A77000BBF8606010BD7047E1B170B50646154684
:10A780000C4672F0C5FD30B9621E29463046BDE860
:10A79000704072F083BD013C84420CD92021431CDF
:10A7A00031540021E21A3046F1542946BDE8704088
:10A7B00072F074BD7047221A29463046BDE87040D9
:10A7C00072F06CBD024B186820F00F00704700BF9C
:10A7D000F4474020024B03481B681840704700BFF5
:10A7E000F44740200000FFFF00291EDD03464FF024
:10A7F000000C10B501E0614516D09E460CF1010C2D
:10A800000433DEF8000000680028F4D0084B002470
:10A810004FF0FF3093F8361083F837204A1C83F846
:10A820003620DEF800301C6010BD0020704700BFED
:10A83000783F40209A4210B5029C12D888420346C5
:10A8400084468E4628BF0B46B3F1015F09DB884280
:10A85000094B38BF8C469C4503DCBDE8104070F0C6
:10A86000DDBD064B002093F8362083F837400132D7
:10A8700083F8362010BD00BF00004620783F4020FE
:10A8800001F03F02531F052B32D8036810B5C1F306
:10A89000072423F00E0C090A631E082B08D8DFE8F2
:10A8A00003F0343405070507073405004CF0060CA7
:10A8B0002CF4E063062C03602ED0092C0AD811F08A
:10A8C000F80F30D1042C29D824B11A4B0CEA030319
:10A8D00043F48023052A15D0082A13D0062A08D865
:10A8E00023F4601323F0D86343F01073036010BDAA
:10A8F0007047083A012AF3D923F0D86343F0107364
:10A90000036010BD23F4E023E8E74CF0040C062CB0
:10A910002CF4E0630360D0D143F4806323F47C1310
:10A9200043F4E813D6E7034B0CEA030343F4E013C4
:10A93000D0E700BFFFF8C0FF10B501F03F04631E71
:10A94000132B33D8DFE803F03636575D320A0A326C
:10A950000A0A1B32263C26324B512C2CFFF790FF63
:10A96000036823F4604303600D2C30D8DFE804F063
:10A97000112F2F0E0E113333112F2F0E2F0E0268B1
:10A98000234B134043F01B7323F4604343F42043F1
:10A99000036010BD01681E4A1E4B0A401343E0E7E6
:10A9A00001681B4A1C4B0A401343DAE70268184B44
:10A9B0001340D6E70268164B134043F48813D0E7E0
:10A9C0000168134A154B0A40134323F4604343F4D0
:10A9D0000053036010BD43F44043036010BD0268A0
:10A9E0000B4B134043F01173EFE70268084B134021
:10A9F00043F01B73E9E70268054B134043F0117302
:10AA0000C2E70268024B134043F01773BCE700BF74
:10AA1000FFFF00F900006B020000450B000043023D
:10AA2000002800F0D880F8B517460D464FF488721C
:10AA3000002104461E4670F00BFD10230022276102
:10AA400023706375637684F8CD300E23A270A375EE
:10AA5000A37684F8CE300123E2706272A272E272B1
:10AA60006273A273E27384F8BD2084F8BE2084F878
:10AA7000BF202275E2752276E27684F8CC2084F835
:10AA8000CF201F22637023736FF03703227284F884
:10AA9000BC30002D00F0868005F1480038F080FFC2
:10AAA000002800F0CF8005F16007D5E91223C4E942
:10AAB0001223D5E91423C4E91423D5E91623C4E9E4
:10AAC0001623384638F06CFF002840F085800023BC
:10AAD0006A4A84F8853084F8863084F8873006F036
:10AAE0003F03C4F880204422013B84F88420132BC8
:10AAF00069D9D5F8882002F03F03013B132B40F2BF
:10AB000098800023012104F1840084F8881084F8DF
:10AB1000893084F88A3084F88B30FFF70DFF0322E8
:10AB20006FF017000023564984F8B9204FF0FF3228
:10AB300084F8B800082084F84220332284F84000CA
:10AB4000132084F8C420012284F8BA3084F8BB3082
:10AB500084F8C53084F8C63084F8C73084F84430AF
:10AB600084F8430084F84630464884F8473084F837
:10AB70004520454B454AC4F8C8002046C4F80C118E
:10AB80004FF48871C4F8E020C4F8F830C4F8E42029
:10AB9000C4F8FC30C4F8E820C4F8003136F0A4FE54
:10ABA0006060F8BD06F03F03344A84F88550013BED
:10ABB000C4F88020442284F88650132B84F88750F0
:10ABC00084F884209DD8731F052B50D8DFE803F04C
:10ABD0002B15152B15157047D5E91823C4E9182333
:10ABE000D5E91A23C4E91A23D5E91C23C4E91C2397
:10ABF000EB6FE367AB6FA36769E74FF4E062324343
:10AC000004F1840042F08002C4F88820052B06D8A5
:10AC1000DFE803F00C03030C030346F4E06631465F
:10AC2000FFF78AFE7BE74FF48072E8E746F4807610
:10AC3000F5E7C4F8882004F18400D5F88810FFF700
:10AC40007BFE6CE705F16007384638F0A9FE002866
:10AC50003FF437AFD5E91823C4E91223D5E91A2305
:10AC6000C4E91423D5E91C23C4E9162329E746F0D7
:10AC7000800304F18400C4F88830D0E700007A44EF
:10AC800000004040C2B8323E9A99993E35FA8E3C57
:10AC9000431F052B06D8DFE803F00306060306066C
:10ACA00040F48070704740F4E0607047044B1B68CC
:10ACB0005B6C13F4802F14BF04200220704700BF88
:10ACC0001839402010B504462DED028B406936F04E
:10ACD0005FFE18B10020BDEC028B10BDA06936F0FC
:10ACE00057FE0028F6D1D4F8CC0036F051FE0028EB
:10ACF000F0D1E368022BEDD8D4F8BC30643BB3F557
:10AD0000617FE7D82269B2F5FA7FE3D82046FFF7E2
:10AD1000CDFF8242DED3D4F8C830DFED847A07EE6F
:10AD2000103AB4EEE77AF1EE10FAD3DDD4F8B83089
:10AD3000002BCFD004F1480038F032FE0028C9D0F3
:10AD400004F1600038F02CFE0028C3D0236AB2EE74
:10AD5000048A07EE903AE36967EEA77A06EE903A26
:10AD6000636AE6EEA67A07EE103AB0EE670AA7EE3F
:10AD7000070A6DF0EBFBB4EEC80AF1EE10FAA9D5A4
:10AD8000E36A07EE903AA36A67EEA77A06EE903A76
:10AD9000236BE6EEA67A07EE103AB0EE670AA7EE4E
:10ADA000070A6DF0D3FBDFED627AB4EEE70AF1EE4D
:10ADB00010FA8FD5A36BDFED5F8A07EE903A636BD5
:10ADC00067EEA77A06EE903AE36BE6EEA67A07EE18
:10ADD000103AB0EE670AA7EE070A6DF0B7FBB4EEC3
:10ADE000E80AF1EE10FA7FF575AFD4F8903007EE6F
:10ADF000903AD4F88C3067EEA77A06EE903AD4F801
:10AE00009430E6EEA67A07EE103AB0EE670AA7EEA7
:10AE1000070A6DF09BFBB4EEE80AF1EE10FA7FF53D
:10AE200059AFD4F8A83007EE903AD4F8A43067EEC2
:10AE3000A77A06EE903AD4F8AC30E6EEA67A07EEA2
:10AE4000103AB0EE670AA7EE070A6DF07FFBB4EE8A
:10AE5000E80AF1EE10FA7FF53DAFD4F89C3007EE2A
:10AE6000903AD4F8983067EEA77A06EE903AD4F884
:10AE7000A030E6EEA67A07EE103AB0EE670AA7EE2B
:10AE8000070A6DF063FBB4EEC80AF1EE10FA7FF525
:10AE900021AFD4F8B4309FED287A07EE903AF0EE67
:10AEA000E77AF4EEC77AF1EE10FA3FF613AFD4F872
:10AEB000E03007EE903AF5EEC07AF1EE10FA7FF747
:10AEC00009AFD4F8E43007EE903AF5EEC07AF1EE2F
:10AED00010FA7FF7FFAED4F8E83007EE903AF5EEBF
:10AEE000C07AF1EE10FA7FF7F5AED4F8F83007EE3D
:10AEF000903AF5EEC07AF1EE10FA7FF7EBAED4F8A7
:10AF0000FC3007EE903AF5EEC07AF1EE10FA7FF7DA
:10AF1000E1AED4F8003107EE903AF5EEC07AF1EEEA
:10AF200010FACCBF01200020D5E600BF0AD7233C91
:10AF300000401C4600007A44DB0FC9400C4B10B5A2
:10AF40001A6804461046FFF7B1FE536C5B0354BF0A
:10AF500042000246814238BF01469142216221638C
:10AF600004D20B460B449342FCD3236310BD00BFB5
:10AF700018394020704700BF034B0020034A19686E
:10AF800018601160704700BF70494020983240201F
:10AF90002DE9F047664D84B0002366489FED666A50
:10AFA0002946DFED666A03F14E0291ED007A013326
:10AFB00000EB8202032B926807EE902A67EE867AF6
:10AFC000E7EE267AE1EC017AEDD15D4C236C07EED9
:10AFD000103AE36B07EE903AB0EEC77A636CF0EE8E
:10AFE000E77A06EE103AB4EEE77AB0EEC66AF1EE12
:10AFF00010FACCBF042300232B44D3ED006AF0EEFB
:10B00000E66AB4EEE66AF1EE10FA00F38B80B4EE75
:10B01000E77AF1EE10FACBBF0127002704260026BD
:10B02000CCBF4FF0060A4FF0000A00233544CDE9AB
:10B0300001330393434B1A68D2F85880D2F85C90DE
:10B04000906CD16C49EC178BF7EEC70B41EC170BEA
:10B05000B7EEC70B38F0D8FCD5ED007A04ABF5EEAF
:10B06000C07A03EB8703F1EE10FA03ED030A03D570
:10B07000B1EE400A03ED030AF5EEC07A32494868A2
:10B08000F1EE10FACCBF0823012303FA0AF22F4B8A
:10B0900003401343DD0236D5E26BDDED016A07EEB6
:10B0A000902A9FED2B7A77EEE67AF0EEE77AF4EECF
:10B0B000C77AF1EE10FA0ADD43F08053180226D465
:10B0C00023F0005338464B6004B0BDE8F087226C93
:10B0D000DDED026A07EE902A77EEE67AF0EEE77A87
:10B0E000F4EEC77AF1EE10FAE6DC626CDDED036A8D
:10B0F00007EE902A77EEE67AF0EEE77AF4EEC77A7A
:10B10000F1EE10FAD8DC23F080531802D8D5114A9A
:10B1100012689207D4D043F0005338464B6004B015
:10B12000BDE8F0874FF00C0A082602277DE700BF34
:10B1300084294020004440205E06A33BF3B97E3FB3
:10B14000482940201839402098324020B66DFFFF32
:10B1500023DBD93F1C3240202DE9F84F514D031D10
:10B1600005EB83039B6807EE903AF5EEC07AF1EEAB
:10B1700010FA40F38E8000EB80042027102605EBA8
:10B1800004147C34636A00EB4000DFED476A07EE8D
:10B19000103A464B4000D3F81CC08640874007EE6B
:10B1A00090CA77EEC77AF4EEE67AF1EE10FA03D59C
:10B1B000DFED3F6A77EEA67ADFED3E6AF4EEE67ADF
:10B1C000F1EE10FA03DDDFED3A6A77EEE67ADFEDB5
:10B1D0003A6AB4EE667AF1EE10FA09D0B5EE407A2A
:10B1E000F1EE10FA0CBF4FF001084FF0000821D12A
:10B1F000324B1868002814DD00EB4000304A23462B
:10B2000004EB8000116818320C3343F80C1C52F820
:10B21000141C984243F8081C52F8101C43F8041CF4
:10B22000F0D1C4F824C06B681E4326EA07076F609C
:10B23000BDE8F88FF0EEE77A9FED227AF4EEC77A58
:10B24000F1EE10FAD4D49FED1B7AF4EEC77AF1EE4A
:10B2500010FACDDCDFF864B0DBF80030002B11DD34
:10B26000A146DFF85CA052464946484608F101086D
:10B2700037F026FEDBF800300AF1180A09F10C0954
:10B280004345F0DC104B3E4363626B6833436B60B5
:10B29000CEE7441C0427022604EB840405EB0414C7
:10B2A0003C446FE798324020DB0F49C054354020C2
:10B2B000DB0FC940DB0F494000C07944A8014020A2
:10B2C000B0324020DB0FC93F00C079442DE9F8437C
:10B2D000414D0446FFF75CFE6B689A0065D43F4A17
:10B2E00081469A4369D0AB680133AB60002B4AD0EA
:10B2F00007EE903AB7EE007A394B4FF0000CF8EEBB
:10B30000677A384E1F68C7EE276A37EE667A002FD5
:10B3100034DD002101EB410301310CEB4303B94261
:10B3200003F1AC0203F1020E03F1AE0803F10403D2
:10B3300006EB820205EB8E0E526806EB880805EBE1
:10B34000830307EE902ADEF80420D8F8080066EEA2
:10B35000A77A06EE102AE7EE067A17EE902A07EE95
:10B36000900ACEF8042066EEA77A9A6806EE102AB4
:10B37000E7EE067A17EE902A9A60CBD10CF1010C19
:10B38000BCF1030FC3D1184B41F288321B681C1B60
:10B39000944208D9154B1A68C2B9002332226B7047
:10B3A0002A70AB70EB70BDE8F883002365226B70E8
:10B3B0002A70AB70EB70BDE8F88313F0007392D184
:10B3C00066226B70AB70EB702A70ECE70022484687
:10B3D0001A60FFF7C1FEE0E798324020000010102D
:10B3E000A801402000444020584840206C4940209B
:10B3F0002DE9F04FC24A00242DED028B8DB003944D
:10B4000006940190CDE90444CDE90744936F07EE1B
:10B41000903AF5EE407AF1EE10FA29D0B94F3B6838
:10B42000A34225DD9FEDB88A02F1540605460DF1D1
:10B43000240BF0EE488A2A4631465846013437F04C
:10B44000CBFC022158460C3637F0E2FF78EEC08A7A
:10B450000121584607940C35CDED048A37F0D8FF0A
:10B460003B6838EE008A0894A3428DED058AE2DC41
:10B47000A34BD3F8A03007EE903AF5EE407AF1EE08
:10B4800010FA30D09F4F3B68002B2CDD651CDDEDA2
:10B49000048A9DED058A00269C4C0DF1240BDDF8F5
:10B4A0000480A94642462146584609EB060537F076
:10B4B00093FC02215846013637F0AAFF78EE808AC5
:10B4C00001215846079508F10C08CDED048A37F0A4
:10B4D0009FFF3B6838EE408A0C340895B3428DEDEF
:10B4E000058ADFDC2C46864BD3F8C83007EE903A4D
:10B4F000F5EE407AF1EE10FA2DD0824F3B68002B2A
:10B5000029DDDDED058A00269FED7F8A0DF1240BF4
:10B51000DFF80092019D2A4649465846013637F029
:10B520005BFC0221584609F10C0937F071FF38EE37
:10B53000008A002158460C358DED038A37F068FFEC
:10B540003A6878EEC08A3319B2420893CDED058A85
:10B55000E1DC984601E0A0460026694BD3F8F030C4
:10B5600007EE903AF5EE407AF1EE10FA36D0654FDC
:10B570003B68002B40F31481DDED038A01369DED1D
:10B58000058A08F10108DFF890A10025DDF8049094
:10B590000DF1240B4A465146584609F10C0937F083
:10B5A0001BFC022158460AF10C0A37F031FF78EEF5
:10B5B000C08A00215846CDED038A37F029FF08EBF9
:10B5C000050206EB050C3B68013538EE008A08924F
:10B5D000AB428DED058ADDDC66469046484BD3F8DC
:10B5E000183107EE903AF5EE407AF1EE10FA34D0C9
:10B5F000444F3B68002B3ADD651CDDED038A9DED71
:10B60000048A0136DFF814A14FF00009019C0DF106
:10B61000240B2246514658460C3437F0DDFB0121FD
:10B6200058460AF10C0A37F0F3FE78EEC08A002182
:10B630005846CDED038A37F0EBFE05EB090206EB29
:10B64000090C3B6809F1010938EE008A07924B4565
:10B650008DED048ADDDC14466646294BD3F8403173
:10B6600007EE903AF5EE407AF1EE10FA58D13246F4
:10B6700003AB07A9012A09DD07EE902AD3ED006A82
:10B68000F8EEE77A86EEA77A83ED007A043306AA0D
:10B690009A4207D051F8042B012AEDDC043306AAA4
:10B6A0009A42F7D1264356EA080373D0184A00237A
:10B6B0000DF1240B12680993CBE90133D2F8C430A1
:10B6C000C3F30743013B162B00F26981DFE813F057
:10B6D0007400610156014B014401390133012D0110
:10B6E00022011C0115010A010401FD00F700EC0014
:10B6F000DD00CA00BB00B000A10096008F0000BFB3
:10B7000098324020A801402000000000143340205F
:10B71000183940203C334020643340208C33402093
:10B72000A24F3B68002BA2DDDDF804A0651CCDF81C
:10B7300004800136DDED038A00249DED048A0DF1BD
:10B74000240BDFF87492B8465246494658463719DA
:10B7500037F042FB012158460AF10C0A37F058FE37
:10B7600078EE808A0021584609F10C09CDED038A54
:10B7700037F04EFE2A19D8F80010013438EE408A0E
:10B780000792A1428DED048ADEDCDDF804801446C8
:10B790003E466CE767200DB0BDEC028BBDE8F08F34
:10B7A000834BD3F8183107EE903AF5EE407AF1EE7C
:10B7B00010FA7FF45CAF50E7DDED037A0499F1EE07
:10B7C000677A059B09910B93CDED0A7A02F11C0073
:10B7D000594637F061FB42F023FB764B186800F0C6
:10B7E00047FF34200DB0BDEC028BBDE8F08F059C07
:10B7F0000399049B09940A910B93E7E7DDED047A22
:10B800000599F1EE677A039B09910B93CDED0A7AC6
:10B81000DCE79DED037ADDED047A059BB1EE477A16
:10B820000993F1EE677A8DED0A7ACDED0B7ACDE7CB
:10B83000DDED037A0599F1EE677A049B09910A938D
:10B84000CDED0B7AC2E79DED057ADDED047A039B21
:10B85000B1EE477A0A93F1EE677A8DED097ACDED74
:10B860000B7AB3E7DDED056A9DED047ADDED037A31
:10B87000F1EE666AB1EE477AF1EE677ACDED096ACC
:10B880008DED0A7ACDED0B7AA0E79DED057ADDED21
:10B89000037A049BB1EE477A0B93F1EE677A8DED54
:10B8A000097ACDED0A7A91E7DDED057A0499F1EE9A
:10B8B000677A039B0A910B93CDED097A86E79DED9C
:10B8C000047ADDED057A039BE4E7DDED036A9DED87
:10B8D000057ADDED047ACBE79DED057ADDED037A9F
:10B8E000049B9BE7DDED057A0399F1EE677A049BF3
:10B8F00009910B93CDED0A7A68E7DDED046A9DEDC1
:10B90000037ADDED057AB3E79DED037ADDED057A87
:10B91000049B9DE7DDED057A0499F1EE677A039BC0
:10B9200009910A93CDED0B7A50E79DED047ADDED98
:10B93000057A039B72E79DED047ADDED037A059BA2
:10B9400086E7DDED037A0599F1EE677A049B0A91AB
:10B950000B93CDED097A39E7049C0599039B099473
:10B960000A910B9332E7DDED047A0399F1EE677AE1
:10B97000059B09910A93CDED0B7A27E7DDED047A5B
:10B980000399F1EE677A059B0A910B93CDED097A45
:10B990001CE79DED037ADDED047A059B7AE7039CB5
:10B9A0000499059B09940A910B930FE7A801402085
:10B9B0009832402098724520B43340202DE9F0475A
:10B9C00000230125974C2DED028B8CB003EB8302F5
:10B9D00004EB0212906F07EE900AF5EE407AF1EE5A
:10B9E00010FA40F09680D2F8A02007EE902AF5EEEB
:10B9F000407AF1EE10FA18BF00250133032BE5D190
:10BA0000002D40F009816368990200F184800DF1F6
:10BA10000C092422002148466FF01AFD824B1B6856
:10BA20009E6DDF6D986CD96C47EC176BF7EEC70B0A
:10BA300041EC170BB7EEC70B37F0E6FF6368B0EECB
:10BA4000408ADA0258D5DFF8E881D8F80020002AC9
:10BA500052DDF6EE008A4D4640F6F4270026DFF868
:10BA6000CCA12946002306EB460003EB830E04EB32
:10BA70000E1EDEF8782007EE902AF5EE407AF1EE01
:10BA800010FA40F09580DEF8A0C003EB430207EE09
:10BA900090CAC2EBC202F5EE407A02441E32F1EEC9
:10BAA00010FA04EB820206D0526807EE902A77EE75
:10BAB000C87AC1ED007A01330431032BD5D1D5ED1D
:10BAC000007AF5EE407AF1EE10FA64D1D5ED017A04
:10BAD000F5EE407AF1EE10FA5DD1D5ED027AF5EE91
